:0300000002000EED
:0C000E00787FE4F6D8FD758120020055D3
:1001DF000A10C0F9A4B0999282F880900808010221
:0801EF00040810204080C1004B
:0401F8007F647E00A2
:0B01FC00EF1FAC0670011E4C70F622D5
:10011500EF139290EFA2E19291A2E29292D293D242
:10012500A3C293C2A320A2FD30A2FDD2A1AFB0E528
:10013500085FF51AC43333335480F51AE5095FF5C2
:100145001BC43354E0F51BE50A5F33333354F8F928
:10015500E50B5F25E0FEE50C5FC313FDE50D5F13C1
:100165001313541FFCE50E5FC4135407FBE50F5F23
:10017500C41313135401FFE51A451B494E4D4C4B4F
:040185004FFFC2A1C5
:010189002253
:03000B00020003ED
:03000300B2A03276
:10009A00758902758AEC758CECD28CD2A9D2AFD252
:1000AA00A4D2A5D2A6D2A7E4FF120115AB07E4FA9F
:1000BA00EB75F002A4FFAEF07C007D0A12018A748F
:1000CA00102FF8E6F580C2A41201F8D2A4EB75F05D
:1000DA0002A4FFAEF07C007D0A12018A74102DF88A
:1000EA00E6F580C2A51201F8D2A575809CC2A612B7
:1000FA0001F8D2A67580C6C2A71201F8D2A70ABA19
:0B010A00C8AE7FF47E011201FC809C57
:10001A0002009AE493A3F8E493A34003F68001F262
:10002A0008DFF48029E493A3F85407240CC8C333E7
:10003A00C4540F4420C8834004F456800146F6DFB6
:10004A00E4800B01020408102040809001DFE47E66
:10005A00019360BCA3FF543F30E509541FFEE493AB
:10006A00A360010ECF54C025E060A840B8E493A372
:10007A00FAE493A3F8E493A3C8C582C8CAC583CA9D
:10008A00F0A3C8C582C8CAC583CADFE9DEE780BE55
:0101F7000007
:10018A00BC000BBE0029EF8DF084FFADF022E4CC59
:10019A00F875F008EF2FFFEE33FEEC33FCEE9DEC22
:1001AA00984005FCEE9DFE0FD5F0E9E4CEFD22ED68
:1001BA00F8F5F0EE8420D21CFEADF075F008EF2FB2
:1001CA00FFED33FD4007985006D5F0F222C398FDA3
:0501DA000FD5F0EA2240
:00000001FF
